:020000040000FA
:10000000F82E00209D010000B9010000BB01000096
:1000100000000000000000000000000000000000E0
:10002000000000000000000000000000BD01000012
:100030000000000000000000BF010000C10100003E
:10004000C3010000C3010000C3010000C3010000A0
:1000500091410000C3010000C3010000C301000082
:100060001951000061510000C3010000C3010000EC
:10007000C3010000C3010000C3010000C301000070
:10008000C3010000C3010000C3010000C301000060
:10009000C3010000C3010000C3010000C301000050
:1000A000C3010000C3010000B54C0000C301000003
:1000B000C3010000C3010000C3010000C301000030
:1000C00000F002F800F03EF80CA030C80838241800
:1000D0002D18A246671EAB4654465D46AC4201D180
:1000E00000F030F87E460F3E0FCCB6460126334274
:1000F00000D0FB1AA246AB46334318470C6D0000F4
:100100002C6D0000103A02D378C878C1FAD8520793
:1001100001D330C830C101D504680C6070470000BD
:100120000023002400250026103A01D378C1FBD813
:10013000520700D330C100D50B6070471FB51FBDFB
:1001400010B510BD00F051F91146FFF7F7FF05F0AB
:1001500024F900F069F903B4FFF7F2FF03BC00F0E3
:100160006FF9000070B505460C46164602E00FCC4C
:100170000FC5103E102EFAD2082E02D303CC03C5B1
:10018000083E042E07D301CC01C5361F03E02178B9
:100190002970641C6D1C761EF9D270BD0C480D4987
:1001A00001600D4901600D4901600D4A0D49116062
:1001B000002101600C480047FEE7FEE7FEE7FEE78E
:1001C000FEE7FEE709480A490A4A0B4B7047000060
:1001D00000010050590000001600000088000000D7
:1001E00024000050A55A0000C1000000F82800209B
:1001F000F82E0020F82A0020F82A00200022030907
:100200008B4273D3030A8B4258D3030B8B423CD3EC
:10021000030C8B4221D312E003460B437FD4002210
:1002200043088B4274D303098B425FD3030A8B428A
:1002300044D3030B8B4228D3030C8B420DD3FF22F4
:10024000090212BA030C8B4202D31212090265D0C2
:10025000030B8B4219D300E0090AC30B8B4201D375
:10026000CB03C01A5241830B8B4201D38B03C01ABC
:100270005241430B8B4201D34B03C01A5241030B33
:100280008B4201D30B03C01A5241C30A8B4201D3E4
:10029000CB02C01A5241830A8B4201D38B02C01A8F
:1002A0005241430A8B4201D34B02C01A5241030A06
:1002B0008B4201D30B02C01A5241CDD2C3098B42EB
:1002C00001D3CB01C01A524183098B4201D38B0168
:1002D000C01A524143098B4201D34B01C01A52410B
:1002E00003098B4201D30B01C01A5241C3088B4250
:1002F00001D3CB00C01A524183088B4201D38B003B
:10030000C01A524143088B4201D34B00C01A5241DC
:10031000411A00D201465241104670475DE0CA0FB3
:1003200000D04942031000D34042534000229C4673
:1003300003098B422DD3030A8B4212D3FC2289017D
:1003400012BA030A8B420CD3890192118B4208D353
:10035000890192118B4204D389013AD0921100E0B5
:100360008909C3098B4201D3CB01C01A52418309C9
:100370008B4201D38B01C01A524143098B4201D3F6
:100380004B01C01A524103098B4201D30B01C01A21
:100390005241C3088B4201D3CB00C01A524183089B
:1003A0008B4201D38B00C01A5241D9D243088B42F1
:1003B00001D34B00C01A5241411A00D20146634694
:1003C00052415B10104601D34042002B00D54942F8
:1003D000704763465B1000D3404201B50020C04621
:1003E000C04602BD704770477047754600F024F85C
:1003F000AE46050069465346C008C000854618B0A1
:1004000020B5FFF7DFFE60BC00274908B64600268E
:10041000C0C5C0C5C0C5C0C5C0C5C0C5C0C5C0C5B4
:10042000403D49008D46704710B50446C046C04661
:100430002046FFF790FE10BD00487047942800202A
:1004400001491820ABBEFEE7260002007047704746
:100450000D49C20703D00A69520052080A61820797
:100460000223002A02DA8A699A438A61420702D586
:10047000CA699A43CA61000704D50448416949081A
:10048000490041617047000000000E4040000B40F1
:10049000024800218162C1627047000000000840EC
:1004A00002498A6A88620120C862704700000840D9
:1004B0007047000010B5114B1C6900241C61012419
:1004C0006403A04205D11869032149030843186158
:1004D00010BD01242403A04205D118690521090398
:1004E0000843186110BD064CA042FBD118690843AF
:1004F000012189030A431043186110BD40000840E0
:10050000FF0F000010B50B49884201DA084603E0EE
:100510000949884200DD08464B210C010019FFF70C
:100520007BFE8006800E054988624B214843001BF4
:1005300010BD000050FBFFFFC50D0000400008404B
:1005400070B5002800D10A200E4D68812879002856
:1005500017D10D4C0122D106204604F0ADFD012239
:1005600011460A4804F06EFD2068610608432060C9
:1005700020684910084320600120054A41021160AB
:10058000287170BD1C000020200001404040005038
:1005900000E100E070B5002801D1FF20F5300F4DDB
:1005A0002881A878002817D10D4C0122D1062046B9
:1005B00004F082FD012220210A4804F039FD206860
:1005C000A1030843206020684910084320600120EF
:1005D000054A01021160A87070BD00001C000020D7
:1005E000000001404040005000E100E010B5094823
:1005F00003F0D2FA0020401CC0B22028FBD300F048
:100600000DF8054800F018F80020401CC0B2202862
:10061000FBD310BD120000400054000005480168E3
:100620000822114301600020401C80B22028FBD921
:100630007047000040000B4070B50F4B0E4C40342B
:1006400021680425A94321602168294321600021F4
:10065000491CC9B22029FBD9216829432160002106
:100660008A0086589E50491CC9B20F29F8D32068C9
:10067000A843206070BD000000000B40F8B50146A3
:10068000002501226048614F614E624C0B0004F06E
:1006900077FE1217444444440A1826535353537E9A
:1006A0008D9C70627E1701222021044604F0C0FC5C
:1006B000384603F08DFA00222021204604F0B8FCD1
:1006C000F8BD01221021044604F0B2FC384603F0C4
:1006D0007FFA00221021204604F0AAFCF8BD012276
:1006E0001021044604F0A4FC384603F071FA0022FD
:1006F0001021204604F09CFC304603F069FA0122E8
:100700001021204604F094FC384603F061FA0022E0
:100710001021204604F08CFCF8BDA27101220821B2
:10072000044604F085FC384603F052FA0022082102
:10073000204604F07DFCF8BD01220821064604F0A5
:1007400077FC384603F044FA00220821304604F0D2
:100750006FFCA571F8BD01220421044604F068FC79
:10076000384603F035FA00220421204604F060FCEC
:10077000F8BD01220221044604F05AFC384603F079
:1007800027FA00220221204604F052FCF8BDE27153
:1007900001221146044604F04BFC384603F018FAD7
:1007A00000220121204604F043FCF8BDE57101223E
:1007B0001146044604F03CFC384603F009FA0022D6
:1007C0000121204604F034FCF8BD01221146044604
:1007D00004F02EFC304603F0FBF9002201212046F4
:1007E00004F026FC304603F0F3F9012211462046BE
:1007F00004F01EFC304603F0EBF9002201212046F4
:1008000004F016FCF8BD000000400050A086010076
:10081000588C02001C000020002803D0820701D160
:100820001C2901D80020704702460C321C39890867
:100830008900026000238160C3604361836142607C
:100840000161704770B5C91C8B089B000246002BE4
:1008500019DD9068984216DB506806E001680029AF
:1008600002D14168994203DA80680028F6D10AE093
:10087000002808D0CD1A0126202D06D806609168E0
:100880004368C91A17E0002070BDC118C468103150
:10089000103D0660C1604D604360002C00D0A16037
:1008A000CC60886000240C605468844200D15160A0
:1008B0009168C91A10391030916070BD30B5103987
:1008C0008B68002B02D01A68002A21D00025CA6844
:1008D000002A02D01468002C1CD00024002D1BD04C
:1008E000002C32D05C684D686519546820342C198E
:1008F0005C60D468DC60D468002C00D0A3604468DD
:10090000944200D1436082684968511820312FE039
:100910000125DCE70124E1E70023002C0B6029D04E
:10092000D368CB60D368002B00D0996043689342B2
:1009300000D1416083684C681B191033836048689C
:10094000526880181030486030BD5A684C681219DF
:1009500010325A60CA68DA60CA68002A00D0936010
:1009600042688A4200D14360826849685118103158
:10097000816030BD826849685118F9E7FFB581B0E0
:1009800002990646C81F1F46F93865D1002F63DD5E
:100990000C2F61DC002E5FD013256D0129463046F7
:1009A000FFF750FF040057D02A46002102F097FCC1
:1009B000E51DFF35FA35AE65029800F0CDF9064623
:1009C00003F0BFF8301AE865029820600398A7602A
:1009D00060600220E0600026C001666120610420A2
:1009E0008101A061204601F01FFDE661266266627A
:1009F000A66221462846A268483180387B00816281
:100A0000C918C162C9180163C9184163C918816353
:100A1000C918C163C918CB184364521C0164510042
:100A20005A1882645218C2645218026552184265FC
:100A3000521851188265C1652E64012040026E640F
:100A4000A864401000F0C6FA28650A2000F0C2FA37
:100A50006865204605B0F0BD0020FBE710B5010039
:100A600006D04B20C0004058FFF728FF002010BDE3
:100A70000420C04310BDFFB583B004007AD0E01D50
:100A8000FF30FA300290C16D806DFFF7DBFE019000
:100A9000002872D004210A1A9207920F16183046C5
:100AA00034300A1A9207920F151828463430091A62
:100AB0008907890F0F1838460C993430002901D066
:100AC0000021A1620090324620460C9B049901F05F
:100AD00069FA0698002801D031680160E0680128B1
:100AE00005DB2A46314620460C9B01F019FBE068E5
:100AF000022807DB0C9800903B462A4631462046E8
:100B000001F0B6FBA06A401CA062032838DD0598FE
:100B10000090A068311D8200009802F0EBFBA068F5
:100B2000820000981618E068012817DB291D30465E
:100B300002F0E0FBA0688200E068961902280DDB55
:100B4000391D3046083A02F0D5FBA06880008619AE
:100B5000083E28683060386870600836029801994D
:100B6000806DFFF7ABFE0598301A801007B0F0BD1E
:100B700000E002E00420C043F8E70920C043F5E7A5
:100B800002980199806DFFF799FE0220C043EDE7BE
:100B900070B5040016D0FF21C531E51D0959FF3598
:100BA000FA35002902D0686BFFF788FEA96B00298F
:100BB00002D0686BFFF782FE2146686BFFF77EFE6E
:100BC000002070BD0020C04370BDF7B58C460028E2
:100BD00004D0002902D00299002902DC0020C04381
:100BE000FEBD624604218B1A9B079B0F9A18C36DAA
:100BF0005B009A18121DD31A1B1F03638B1A9B07E5
:100C00009B0F9A18C36D5B009A18121DD31A1B1FF5
:100C100043638B1A9B079B0F9A18836D5B009A188E
:100C2000D31A83638B1A9B079B0F9A18836D5B0003
:100C30009A18D31A83648B1A9B079B0F9D18C21DA9
:100C4000FF32FA321346526A54006219141BC4630D
:100C50008C1AA407A40FA2185C6A6400A218891A4F
:100C60008907141B890F891804645A6A53005A189B
:100C7000D11A0024416422E0A100091880318B6A56
:100C80009E46002B1AD004239B1A9B079B0F9A1891
:100C9000012500230A6580320CE01F0705D11E11D3
:100CA000202E02DA0F6DB600BD51AF007646F7591F
:100CB0007D195B1C8F6A3F689F42EEDC641CC16A31
:100CC000A142D9DCFF212131095800291ADD042372
:100CD0009B1A9B079B0F9A1849008A18531AF821F0
:100CE0000B5001210BE08B001B1880335D6A5C6F99
:100CF000002D00D02D686D006419491C9C67C36AE3
:100D00008B42F0DC6146521A02998A4203DD0021CF
:100D10000163881EFEBD0020FEBD10B5002808D06E
:100D20000A46FF23CC3A36339A4205D32820C043E3
:100D300010BD0420C04310BD01F076FB002010BDA3
:100D400010B58038812801D3002010BD1324640120
:100D500002F0F7FE001910BD014610B58039812957
:100D600001D3002010BDC400FF34913402F0E9FE2D
:100D7000001910BD30B5002806D0016B002906D03F
:100D800000221146164C0BE00020C04330BD01206C
:100D9000C04330BD056B5300EC52456B521CE95209
:100DA000C36D9B1C9342F5DC026B1180026C1180B9
:100DB000C26B1180426C1180002205E0846C5300EC
:100DC000E152846B521CE152836D9342F6DCFF309A
:100DD000FF300230C161016201210163002030BD9A
:100DE000589EFFFF70B50E460400054625D0002E24
:100DF00023D0286B002823D0204600F09DF93146EF
:100E0000284600F049FA3146284600F053FA2A46AF
:100E1000FF32813290652B6B0021FF34595EFF3425
:100E2000023488420FD0E86D696B4000801C085E78
:100E30000F2808DAA069401C06E00020C04370BDFE
:100E40000120C04370BD0020A061142801DB0120F7
:100E500000E0002060612846916D00F06BFBA16A04
:100E6000814202DA284600F0B1FB284600F000FC7F
:100E7000284600F037FCE0692A6C4100535E0D4AB9
:100E8000934203DB6B6C595E914205DA2846FFF70B
:100E900071FF0920C04370BD401CE061616A884257
:100EA00004DB206A401C20620020E061284600F03C
:100EB0007FFC70BD68C5FFFFFFB581B00F4606001F
:100EC00027D00398002824DB0498002821DB8F25F5
:100ED000AD00002414E0A0003058002819D0016CA7
:100EE00049004A1989180422521A9207920F55187C
:100EF000002C11D00022114600F026F84519641C80
:100F0000BC42E8DB02F01DFE41004018401905B06C
:100F1000F0BD0020C043FAE73068049A0399EBE77C
:100F2000002804D0092905D32820C0437047042095
:100F3000C0437047816100207047002801D080685D
:100F400070470420C043704770B5002803D00029C3
:100F500001DB002A02DA0020C04370BD426C042489
:100F600053001A1DA61AB607B60FB6189A19121D05
:100F7000A31A9B079B0F056C9A186B009A18A61A68
:100F8000B607B60FB2189A18A31A9B079B0F9A18A8
:100F900049008A18A31A9B079B0F9A188A18A31A4C
:100FA0009B079B0F9A188918621A9207920F511883
:100FB000002D0DDD827D92060AD50D46803502F0AA
:100FC0005BFA006840004019211A8907890F091847
:100FD000084670BD012801DC00207047002100E0B8
:100FE000491C02460A41012AFAD192020A2903DC6D
:100FF0000A235B1A984002E00B460A3B1841801A0C
:10100000024A4000105E490208187047105D000057
:10101000FFB590B01098C26E006F101A049098102F
:1010200084464868083140004008069060468000C9
:1010300043180A903E4802901998002802D00022D6
:10104000D2430260002064E000200090109A1298C1
:10105000926E002446E00D681F680F973F0C0C97B6
:1010600080C82E16BE1B1778121D864607920C9854
:101070007643464300983E4130180090281442B20F
:10108000704600680F9F861A7046001D079A8646B4
:10109000BFB2107876437E4306410098361800961A
:1010A0001E1D0B962812366843B20F9670460068D4
:1010B000360CC31A5B4317797343009E3B419F195B
:1010C00070466BB245680F9EEB1AB6B2157A5B4359
:1010D00073432B41DB1900930B9B0830091D0C3225
:1010E0001B1D641C6445B6DB04990098084119680F
:1010F000401040180299814206DD0290199800289C
:1011000002D01999039808600A98191D431803988A
:10111000401C069A0390904296DB1098016F02984B
:10112000084104494042884200DA084614B0F0BD44
:10113000FFFFFF7F78ECFFFFFFB5564B426B016B63
:10114000029300230193FF2325331B589E4601235E
:101150009C46002465E0019B9B001B18FF33013374
:10116000DB6CA34208DC019B5B1C01939B001B18FA
:10117000FF3301335B6A9E4673465D686346EB1836
:101180005F000093D35B7D185B1CD353CE5F403D63
:101190003E230395EB5E9E420CDACB530123D353DF
:1011A000BB18403BDD8F866B6300F552039D866C58
:1011B000ED8FF552039D3E23EB5E029DAB4200DDB9
:1011C0000293009B14E05D000395565B6F18761C3C
:1011D00056534E5F403F3E257D5FAE4208DA039E88
:1011E0008D53039D039EAD18403DED8F6D1C9553AF
:1011F0005B1E6345E7DC5B00D55A6D1CD5520025AC
:10120000CE5E4D5FAE4202DACD520125D552009B33
:101210005B1C9C4673461B689D007346EB189E46FC
:10122000641C836DA34296DCC36D02255B009C1891
:1012300063885B1C6380C36D5C0063185D5F0C5F3B
:10124000A54205DA5C80C46D01236400A4186380A4
:10125000C36D5B00D45A641CD452C36D5C00002380
:101260000D5FCB5E9D4204DA0B53C46D0123640015
:101270001353C36D00255C004D5F0B5F9D4208DA80
:10128000A418FF3002228130A25E006D824200DD90
:101290000B80FFBD589EFFFF30B5002206E0446E74
:1012A0009300E55CCC58AC40CC50521C036E93428A
:1012B000F5DC30BDF3B593B00027066B009705460B
:1012C000036E803009908169994C2846149AFFF783
:1012D0009FFE0097039009982B6EC1692846149AC7
:1012E000FFF796FE0399814200DD08460D90318894
:1012F000081800B23080A04200DD04460CA800901F
:1013000009982B6E016A2846149AFFF781FE07465A
:101310002846FF3081300690C7650998416A002948
:1013200017D000200C9A03E00B689B005918401C52
:101330009042F9DB486800280BDD002000902B6EFE
:101340002846149AFFF764FE874200DA074606999A
:10135000C865E81DFF30FA300E90C06A0021381AC7
:101360000490E81DF93005E0099B00229B6F4F00B7
:10137000DA53491C026A8A42F6DC00210B91406A6A
:101380001090686811900127084607918FE00B982C
:1013900080004019FF300130C16C079881420ADC9F
:1013A0000B98FF21401C0B908000401925310958F3
:1013B000109140681190109840680890109808307B
:1013C00005901198807D800630D40020069028E09A
:1013D00078000990315E5648814218DD0020009067
:1013E0002B6E2846149A0599FFF712FE0599496855
:1013F000002903DA0399884200DA08460999715AEC
:10140000081800B20999A042705200DD0446059800
:10141000006881000598081805900698401C7F1CFC
:101420000690014608988142D2DB2DE0002006900C
:1014300027E078000990315E3D4881421DDD069825
:1014400081000A910598149B40580B99420052085C
:10145000284601F053FB059A0A995158002903DAEE
:101460000399884200DA08460999715A081800B2AF
:101470000999A042705200DD04460698401C7F1C6A
:10148000069008998842D4DB7900725A0D9810189A
:1014900000B27052A04200DD04461098006881003E
:1014A0001098081810900798401C7F1C0790A96D91
:1014B000814200DD6BE7E86D4100725A0498101814
:1014C00000B27052E96D4900A04200DD044689195E
:1014D0004A880D98101800B24880A04200DD0446EA
:1014E0000E98EB6BC069328841005A520E9A126B0B
:1014F000012A17D0401E02D50E9A526A10182A6C83
:101500004000165A049BF31853526A6C135A0D98F4
:1015100018185052286C405EA04200DD0446204658
:1015200015B0F0BD2A6C049850520D986A6CF0E723
:10153000589EFFFFF0B5036B00255A5F224CA24274
:1015400001DD521A1A80012210E054001E5F1E4F66
:10155000BE4201DD761A1E53476F1E5F7F42BE42B8
:1015600002DA194E1E5300E06D1C521CC46D9442E9
:10157000EBDC154CC66DB61C964207DD5700DE5FEE
:10158000A64201DD761ADE53521CF3E78722920051
:101590001258C66B5200B35EA34201DD5B1AB35210
:1015A000066CB35EA34201DD5B1AB352466CB35EB8
:1015B000A34201DD5B1AB352FF308130826D511AB4
:1015C00081652846F0BD0000589EFFFFF8B504462F
:1015D000476F066B7810E51D4100FF35FA35891C11
:1015E000686BFFF72FF901003FD0002278101346F7
:1015F000401C02E05700CB53521C9042FADC0122FF
:101600000BE05300F35E194FBB4205DD5B425B0804
:101610005B00CF5A7F1CCF52521CE36D9342F0DC2B
:1016200000231A4606E05700CF5FFB18AF6A9F42BF
:1016300002DB521C9042F6DC520000270120921E71
:10164000524294460AE04200B35E9646634503DA8E
:10165000064B7246B35200E07F1C401CE26D824292
:10166000F1DC686BFFF72AF93846F8BD589EFFFF9A
:10167000F0B5416D062931DB00218C46FF21253173
:1016800001230A580024056B25E0614689000918EA
:10169000FF310131C96CA14207DC6146491C8C460F
:1016A00089000918FF3101314A6A5168C91808E0F8
:1016B0005E00B646AE5F6427FE4202DA084F764609
:1016C000AF53466DF3188E1B9E42F1DC4B1C116824
:1016D00089008A18641C816DA142D6DCF0BD00002F
:1016E000589EFFFFFFB5046B416B03918721890072
:1016F000095802910021615E0022D2430191002924
:1017000052D000239E46FF232533876D1D580126A6
:101710000023BC4626E07746BF003F18FF3701375D
:10172000FF6C9F4207DC75466D1CAE46AD002D1860
:10173000FF3501356D6A6F68BE1977000096E65F68
:101740008E4201DD31461A463F19403F3E26BE5FBC
:101750008E4201DD31461A462F68009EBF007D197A
:101760005B1C761C67469C45D5DCC36D02255B007F
:101770001E19755F8D4201DD29463A46E55E8D42B0
:1017800001DD29466246019D8D420DDA039D5B19FC
:1017900002255D5FFF23D1331B589D4204DB21806E
:1017A000C36B029840001952104604B0F0BD00000F
:1017B000F0B505460446006B8FB08446606B06901A
:1017C000FF20FF352530ED35002302590121881E09
:1017D0000190A7480790A66D1846039627E09E0043
:1017E0003619FF360136F66C864205DC5B1C9A0022
:1017F0001219FF320132526A566871184F0066465C
:10180000BE46F65F079FBE420BDD07960190069E1F
:101810007746F65F67467744403F00963E26BE5FB8
:1018200009961668401CB600B218039E491C8642F1
:10183000D5DCE71DFF37FA373E46386B803E01287E
:101840000BD100203863401E306600207066B06601
:10185000204601F035FA0020F86085490798884253
:1018600075D0F9690098081A401E069002D57A6A68
:10187000101806900198A26B40000B90105E069A1B
:10188000121A0292009A8218786A824201DA029948
:1018900000E00291002905DA396A00293DD0029959
:1018A000401802900098012805DCE26C204601995E
:1018B00001F08CF9B066F16C0098814237DA20466D
:1018C00001F0D6F9A16B0B98069B085E00902046AC
:1018D000029A019901F0F0F80390A16B0B98069B16
:1018E000085E00902046029A019901F0FAF801463C
:1018F0000398401A3969884229DB204601F0E0F953
:10190000019828800298E880069828810020C0432A
:101910006881B06E002802D004E00020C1E70220F8
:10192000C0436881204601F0DDF9F86081E0B16CC8
:101930000B98095E0098401A316D884207DB316EC2
:101940000198814204D1706E401C706609E088E005
:10195000306601207066204601F0B2F90020F86080
:10196000706E716D88427DDB019828800298E88056
:1019700006982881204601F0B5F9F860B06E00287D
:1019800070D00298E16B40000490085E404232281B
:1019900005DD3221FEF740FC1921484300E000201C
:1019A000226DB16D1018091A079881425ADCA16B9B
:1019B0000B98069B085E00902046029A019901F060
:1019C0007BF80390A16C0B98E26B095E0498105EA3
:1019D000A26B081A0A2148430B99515E0091FEF749
:1019E0001BFC04902046069B029A019901F079F8AD
:1019F0000090716C0B98095E0498081803990A1AF4
:101A000000996A80411A2046A980803083689342F9
:101A100002DBC3688B4210DD15490998884221D149
:101A2000204601F025F900990398401A3969884247
:101A300018DB0A20C0430FB0F0BD0369934202DAFD
:101A40004069884205DC2046019901F086F80028AB
:101A50000BD007490998884204D1204601F008F9C3
:101A6000E7E7FFE70920C043E5E70198E3E7000067
:101A7000589EFFFFF8B50D00064613D0002E11D07A
:101A80004C21FEF7DFFE04000CD04C22002101F0B7
:101A900026FC08224F492846266001F03CFC00281D
:101AA00052D101E00020F8BDA868E062E86800902B
:101AB000E063286960606A69A260A969E160EB6916
:101AC000012608352361002803DD3746401E874084
:101AD00000E000276761002A03DD3046521E904077
:101AE00000E00020A061002903DD3046491E884047
:101AF00000E00020E061002B03DD30465B1E9840D3
:101B000000E00020224644322062111F284600F0E7
:101B100051FF284618306062E06A216CC0008900DD
:101B20000F1839462068FEF78DFE2063E16A8900B0
:101B3000421851186263A164002805D0226C9200FB
:101B40008A18101AB84203DD204600F045F8A9E7CC
:101B5000009A0027901D92001832521912680860EE
:101B60005100531826640099626451434900591882
:101B70000818401C25E0810049190968636B8C46F0
:101B8000B900226C5A50226B50500022401C15E0C4
:101B90008100266C4919A36C0968B60098514B0066
:101BA000CE18009B4B435B00F3181818636C401C65
:101BB00059186164216C491C521C21646245E7DBA1
:101BC0007F1CE16AB942D6DC8000A562A063204692
:101BD000F8BD00007465000010B5040009D0216B49
:101BE000002902D02068FEF769FE21462068FEF732
:101BF00065FE002010BD002805D0826C8900515878
:101C0000806A89004018704710B500281FD0114A1B
:101C10004A431314826F541A024680329460C46F90
:101C2000E418D4601468641A14615468E3185361AA
:101C3000322202650A22D14207DA0A314943891168
:101C4000322900DD322132310165002010BD002033
:101C5000C04310BD55550000002800D0C06A704731
:101C6000002800D0C06B7047F0B500281FD00025B9
:101C70007F27FF430EE0446AAB00E65CCC5834415A
:101C8000CC507F2C02DD7F24CC5002E0BC4200DA35
:101C9000CF506D1C9542EEDB002305E09C000D59F2
:101CA0000679B5400D515B1C9342F7DB1846F0BD39
:101CB000FFB585B003001AD0FFF79DFF27490668DE
:101CC000029100220E99D2430A6059681A698E4621
:101CD0009968891A0491F1000818001DB100039059
:101CE0000818844608980021800001902EE01C48C6
:101CF00009B0F0BD0198002460442246009010E035
:101D0000970007986546C059ED59401B40437546FA
:101D1000E84005460098C7596F437546EF403C19A7
:101D2000521C08988242EBDB0498401CC440039884
:101D30008A008058029A2018904202D202900E988F
:101D40000160009A019880188446491CB142D1DB99
:101D5000197C0298C8404042CAE70000FFFFFF7F9D
:101D60004039D2FFF3B593B00200109012D0104664
:101D7000FFF776FF044600211046FFF73CFF059071
:101D800020C8FF2206AB0132294600F04EFE00209B
:101D9000014606E0002015B0F0BD8300149A401CF7
:101DA000D150A042F9DB002026E06B000021EB18A7
:101DB0009E460A46830011E01746674376467F0039
:101DC000F619059FB600F619361DB446960006AF03
:101DD000BF596646F65877437918521CAA42EBDB86
:101DE000109A52695118109A12791141149AD258C6
:101DF0008A181499401CCA50A042D6DB0020082340
:101E000013E010994A6A81005258082A06DA9D1A8E
:101E1000149A52582A41149D6A5005E0149D083ABC
:101E20006D589540149A5550401CA042E9DB20465D
:101E3000B1E7F7B596B0169814461290002872D004
:101E40001698FFF70DFF054601201390049000201F
:101E5000014602E08200A150401CA842FADB0020AB
:101E60000590810013A841581698FFF7C4FE07900B
:101E700040C8FF220AAB0132314600F0D6FD0021F6
:101E800029E072000020B21808928A008446964623
:101E900012E007466F43089B7F00DA199700079B03
:101EA0008200FB180AAFBF5872461B1D9B58624642
:101EB0005F43BA189446401CB042EADB129842696C
:101EC00060461018129A127910417246A258821870
:101ED00070462250491CA942D3DB05980499401C46
:101EE00005908842BDDB002606E0B700E059049962
:101EF000FEF792F9E051761CAE42F6DB0020082393
:101F00000EE012994A6A81005258082A03DA66588C
:101F10009A1A164102E06658083A96406650401CEC
:101F2000A842EEDB284619B0F0BD0000F0B587B03E
:101F30001D4616460F46040005D00822184901F038
:101F4000EAF9002802D0002007B0F0BD2046083092
:101F5000A4684168059104AA02A900F02BFDA10024
:101F600008464C300818029989000818009001F0C2
:101F7000E8FD410000980818C01C80088000002F70
:101F800001D005993960002E00D03460002D01D0B9
:101F9000029929600C990029D6D0049A0A60D3E7E7
:101FA00074650000FFB583B004468C460C9804218C
:101FB0000A1A9207920F1018226892001018001D3A
:101FC0000B1A9B07871A9B0F18181018001D821AEE
:101FD000121F01920A1A9207920F101806465C30DF
:101FE0000A1A9207920F101800905C30091A89079C
:101FF000890F0D1800203F1F05E041006246515E29
:102000008200B950401C21688142F6DC39462046E6
:10201000069A00F01FFC39462046069A00F0FEFBA7
:102020003846216800F0D8FB3846A269216800F0E4
:102030003BFC206800218200019801F050F92268E1
:102040003846019900F030FB3B462268184601995A
:1020500000F0CCF9019001463846226900F061FA9F
:1020600062693846019900F0DAFA3346394620466B
:10207000019A00F079F9074601463046009A00F0CF
:1020800039FA2A463946A368009800F0DBFA059829
:10209000296801600B4B0120DA430CE081006E5887
:1020A0009E4201DD6B5002E0964200DA6A50059FC5
:1020B0006E587E50401CA1688142EFDA481C07B080
:1020C000F0BD0000FF7F000030B5039D002809D05F
:1020D0000446FF34ED340020205E002805DA02209B
:1020E000C04330BD0020C04330BD002902D00220D3
:1020F000205E0860002A02D00420205E1060002BC1
:1021000005D00620205E18600820205E5860002D53
:1021100002D00A20205E28600020205E30BD000032
:10212000FFB504468768FF3481347F1C81B00E46BA
:102130000546002B2BD00020820052193168401C2C
:10214000D1620728F8DBAA68311DA06A01F010F9F6
:10215000AA68311DE06A01F00BF9AA68311D206BF5
:1021600001F006F9AA68311D606B01F001F9AA6857
:10217000311DA06B01F0FCF8AA68311DE06B01F085
:10218000F7F8AA68311D206C01F0F2F824E0002075
:10219000810049190A6B401CCA620628F8DB8000DE
:1021A00040193168C162216B606B6163E16A216330
:1021B000A16AE162A16BA162E16BA163216CE163A1
:1021C0002064311DAA6801F0D3F8AA68301DA16A05
:1021D00001F0C2F8A86B3060696BE86B2A6B401A9B
:1021E000296C891A49004018EA6A696C891A4A0000
:1021F000891840181C21FEF70FF81C4DA84201DD7C
:10220000284604E01949C943884200DA0846039980
:102210000126086025E07000801EA16BE26A095E5D
:10222000125E236B891AE26B1B5E125ED21A520099
:102230008918226C636B125E185E101A42008018B7
:1022400008181C21FDF7E8FFA84201DD284604E03C
:102250000649C943884200DA0846B2000399761C51
:102260008850BE42D7DB05B0F0BD0000FF7F000004
:10227000FFB505462C4681B0FF34AF680A9881341B
:102280007F1C636C0E46002823D03A4618460399FB
:1022900001F06EF83A46A06C039901F069F83A46ED
:1022A000E06C039901F064F83A46206D039901F05F
:1022B0005FF83A46606D039901F05AF83A46A06D0E
:1022C000039901F055F83A46E06D039901F050F892
:1022D0001CE0E16C206D2165A16CA364E164616D7B
:1022E0006164A16D6165E16DA165E0653A460399A0
:1022F00001F03EF8AA68301D616B01F02DF8E86A24
:1023000030603A46616C039801F026F80025154EBE
:1023100024E06800616DA26C095E125EE36C891AAC
:10232000A26D1B5E125ED21A52008918E26D236DF7
:10233000125E185E101A4200801808181C21FDF762
:102340006BFFB04201DD304604E00649C9438842D4
:1023500000DA0846AA0004996D1C8850BD42D8DBFB
:1023600005B0F0BDFF7F0000FFB50446FF341E49F5
:10237000E13483B040180190002000904000864670
:10238000235E01190420085E0122C51A6E10002088
:102390009E191946B44606E0049E8F00F659491C62
:1023A00056433018521C8C45F6DCEE0700D1521E05
:1023B0005B198B4207DD049D8E00AD59491C5543C6
:1023C0002818521EF5E7019A7146515EFDF724FF69
:1023D00000998A00069988500098401C00901728A0
:1023E000CCDB172007B0F0BD12020000F0B5D40F0F
:1023F000A21856100268761C002A00DA5242012404
:102400001A600CE0A700C259002A00DA5242DA51E1
:10241000CD59002D00DA6D425219DA51641CB442D4
:10242000F0DB3046F0BD0000F3B5016804464D1006
:102430002E49FF34401883B0E1346D1C0190812D8A
:1024400002D0002005B0F0BD0498294FC11FF93912
:102450003ED03888208028B201260090B00038583D
:1024600004990002FDF7D8FE00B271006052A84244
:1024700001DD00986052761C182EEFDB7100009889
:1024800060522C20205E6D1EA84200DDA585022032
:1024900042001519403D3C21695EA35E491C8B42F8
:1024A00000DAA152401C1628F2DB00214A00131961
:1024B0000420185EA35EC31A5810DB0711D0401C1D
:1024C000019B40439852491C1729EFDB1720B9E7BD
:1024D000002081004200795A401CA1521928F8DBE3
:1024E000E3E7431C434301988352ECE712020000E8
:1024F00010650000F7B500240E4627460DE0009851
:10250000A5004059002802DC0298475104E0401C15
:10251000FEF760FD02994851641CB442EFDB30467F
:10252000FEBDF8B5161E04460D460ADDF01FF9384B
:1025300007D02068009000202060FF2E03DC0127D8
:102540001CE00846F8BD6F1E18E038023146FDF762
:1025500063FE411CA94203DB0021B800215008E0C2
:102560008100605809194968884200DC0846BA00B1
:10257000A050FF2E01DC7F1C00E07F1EAF4201DA7D
:10258000002FE2DC01202146783930E0FF2E17DCF5
:102590006A1E90422DD0AA1E904208DB8300E258AA
:1025A0001B195F68BA4202D152105A601EE08300C4
:1025B000E2581B195F68BA4218D19F68D219F3E735
:1025C00002280BDD83001A19803AE358D76F9F4227
:1025D0000CD1976FFB185B10D36707E0022805D179
:1025E000CB6FA268934201D15210CA67401CA84227
:1025F000CCDB009820602846F8BD00280CD0FF30C6
:10260000FF300230002901D0036A0B60002A01D09C
:10261000C0691060002070470020C043704730B58B
:102620000346002A0BDD481E5043001201220024FD
:10263000401C02E095005C51521C8242FADB0846C5
:1026400030BD0000FFB59646172902D0002004B027
:10265000F0BD002211468B00C358491C9A18172957
:10266000F9DB71460A60039917250124491C0D4EB8
:102670008C4613E0002319468F006A00C759B25EEA
:10268000491C5743FB186D1C1729F5DBFF33FF333B
:1026900002339912A20073469950641C6445E9DB29
:1026A0000398D4E77E650000F7B592B0054614980C
:1026B0000C46C11FF93902D0002015B0F0BD08202A
:1026C000039037480990FF3003300E9008200D909A
:1026D00021462846149A00F0F5F8012100200190C7
:1026E0004800089000200790019A0398821A012060
:1026F000521E90400A900E980022825E069209981F
:102700000022825E002396463FE01A462EE05018D3
:102710008600B446A859069E0C9070436646A6599A
:1027200077460B967E43861B0D98064110960C98B3
:1027300076467043069F0B9E7E4386190D98064190
:102740000C9690002F58109EBF1B6646AF5127581D
:102750000C9EBE1B6746E6512F58109EBE192E5088
:1027600027580C9EBE1926500898121814988242B9
:10277000CDDB0A9A0798801807900E9A4000125EE7
:102780000692099A5B1C105E86468B42BDDB01985F
:10279000039A401C089901909042A1DB14988CE7A1
:1027A00002680000002805D0FF308130142904DDC4
:1027B0000A2203E00020C0437047052242650165FC
:1027C000012901DA012101650A46C16C0A398A42F0
:1027D00000DD016500207047F0B54E10CA1FF93AC0
:1027E00019D10D4C07E09300C558E7587D4380355B
:1027F0002D12C550521CB242F5DB531E09E0950064
:102800009F004659E759521C7E4380363612465186
:102810005B1E8A42F3DBF0BD086C0000F0B5436834
:102820009B005B18803BDD6F002A03D00022C26151
:1028300000240AE0C269FBE7A600F3278B597A431C
:1028400012129A1A8A511A46641C0368A342F3DCD6
:10285000C561F0BDF0B5002A02D0002202624262DA
:102860004268446A92005218803AD26F9446026AD3
:10287000920200230AE09E008D590A4FAD02AA1A67
:102880007C43121994128C512A465B1C05689D42A8
:10289000F1DC624602624268920051188039C96FC9
:1028A0004162F0BDE603000030B5002A08D00023E5
:1028B00004E09C000559154105515B1C8B42F8DB77
:1028C00030BD0000FCB5D31FF93B3BD11E4C0223A9
:1028D000E35E45689B00C6584660C550CE584D68BB
:1028E0004E60CD5002231D46921028E0002221E0C8
:1028F0005F00BE46E75F9F421ADD9E000096865944
:102900000196BE008759009E87517746E75F019E7A
:10291000BF00C651009E77468E590196E65FB6000D
:102920008F59009E8F517746E75F019EBF00CE51C1
:10293000521C5B1CAA42DBDB6D00624652109446BF
:10294000002AD3D1FCBD0000066A000030B5002883
:1029500007D0836D8B4201DD002905DA0B20C043CF
:1029600030BD0020C04330BD0023C46A07E09D0095
:102970002D18FF350135ED6C8D4202DC5B1C9C424D
:10298000F5DC002B05DD9C002418FF340134A46C19
:1029900000E000249B001B18FF3381330C1BDB6914
:1029A000A4001B5BFF309A188130806C49004252B2
:1029B000002030BDF8B504460068009063688E467C
:1029C0009900183109190968012675462E604D00D5
:1029D0004D19116059434900981D691808180021C4
:1029E0008C46401C1DE0810009190F68714609687A
:1029F0007546C9190026401C29600DE085002D1977
:102A00002D68116849191160690069185D436D00EE
:102A10004D192818401C761CBE42EFDB6146491C4C
:102A20008C4600998C45DEDBF8BDFFB517460E4697
:102A30008A0089B001460025684600F05BFC00244E
:102A40002146684606E08A00825814197A4300D568
:102A50000125491CB142F6DB002D0AD00024214695
:102A600005E08B00C25812121419C250491CB14221
:102A7000F7DB00250EE0002C07DDA9006846405872
:102A800021467843FDF7C8FB00E00020AA000C991E
:102A90006D1C8850B542EEDB28460DB0F0BD002815
:102AA00001D0002902DC0020C0437047FF30FF3016
:102AB000023081620020704710B50446006C5B0054
:102AC000C35E5200805E0A22181A02995043FDF735
:102AD000A3FBFF34FF340234E16A0A225143401859
:102AE00010BD10B5406C5B00C35E5200805E0A22D0
:102AF000181A02995043FDF78FFB10BDF8B5C51D9C
:102B00009C46F93589000C182B6A56008034002B3E
:102B100005DDA16F895F002901D00846F8BD1711B6
:102B20001F2F00DD1F27216DBB00C958A36A890034
:102B3000C9183F0103E00B689B0059187F1C97429E
:102B4000F9DB002200926246036EFEF761FA296A01
:102B50000029E3DDA16F8853F8BD10B54268002A53
:102B600032D0C36A002B2FDD002207E09400241826
:102B7000FF340134E46C8C4202DC521C9342F5DCDD
:102B8000934221DD93001B1858681424045F012030
:102B90000003844218DBFF330133586A002A01DD49
:102BA0009A6C05E0002203E003689B001818521C91
:102BB0008A42F9DB01688900081808388078000625
:102BC000000E01D0012010BD002010BDF8B5836DAE
:102BD0008B4248DD002A44DB036B0093FF23002671
:102BE00025331B580124354615E0B7003F18FF3741
:102BF0000137FF6CAF4205DC761CB3001B18FF33B6
:102C000001335B6A8D4208D05F683C191F68641C01
:102C1000BF00FB186D1C8D42E7DD5D68002A08D1FE
:102C20000C2D04DD0C21A81FFDF7F6FA00E00020B2
:102C3000021D501C854214DB0023DB430B4900209E
:102C40000AE0032806DB009E6700F65F8E4201DD86
:102C500031460346401C641CA842F2DBA81A984285
:102C600001DC0120F8BD0020F8BD0000589EFFFFE8
:102C7000F0B5FF21002425310B58012122460F4ECB
:102C8000056B15E0A7003F18FF370137FF6C97422F
:102C900005DC641CA3001B18FF3301335B6A5F680B
:102CA00079184F00EE531F68491CBF00FB18521CD7
:102CB000876D9742E6DC1046F0BD0000589EFFFF8E
:102CC0000021FF30C943ED300180C18001810449FA
:102CD00041804942818000214181084670470000BF
:102CE000983A0000F0B50646044689B0006B06909D
:102CF000606B0190E01DF930FF360590F936002534
:102D0000FF3001300390059800230121426A881E9C
:102D100002903E48A76D86461846BC462EE09F00AE
:102D20003F19FF370137FF6C874205DC5B1C9A00B7
:102D30001219FF320132526A576879180791490017
:102D4000069F0091795E0891714511DD002104E034
:102D50008F00F75F874202D0491CA942F8DBA942E5
:102D600006DB0899019F8E4600990290795E0491D6
:102D700017680799BF00BA18401C491C8445CEDC6F
:102D800022498E453CD00398C16904988C460B1AA1
:102D90005B1E02D50398406AC3180298A16B4000DD
:102DA0000790085E04991F1A42180399496A8A42DB
:102DB00000DB6746002F04DA039A126A002A22D049
:102DC000CF1900903A4620460299FFF775FE009011
:102DD000A16C07987A00085EE16B895EA26B401ACD
:102DE0000A2148430799515EFDF716FAAA00029995
:102DF000B15200996D1C081A91194880052D82DB8B
:102E0000284609B0F0BD0027DBE70000589EFFFF11
:102E1000FFB504460E46803483B09821A06EFDF7BE
:102E200011FD050021D0059831468200284600F0AA
:102E300061FAE06E2946059AFEF716FF01AE00968C
:102E4000E06E2A460021059BFEF732FF00960746FA
:102E5000E06E2A460121059BFEF72AFF0146606EBF
:102E6000C019884204DC012603E0002007B0F0BD51
:102E700000262946A06EFDF721FD3046F6E7FFB596
:102E800085B00D4604003BD06068002838DB002B7D
:102E900005D1680001191020085E401C02D12046AF
:102EA00000F059F829462046079A00F0C6F8204657
:102EB00080300390806E3021FDF7C4FC07001FD0E6
:102EC000A068002800DB0546680001191420085E90
:102ED000642800DB642001906068002804D0102082
:102EE000085E012800DA01201E2148436430019960
:102EF0000090401A02901820002645432D1913E037
:102F0000002009B0F0BD70002818A822115E029AB6
:102F100051437822825E0198424388180099FDF758
:102F20007BF9B1007850761C2068B042EBDC0025BC
:102F300007E0A80007993A5809588A1A07996D1CA2
:102F40000A502068A842F4DC03983946806EFDF7E9
:102F5000B5FC2846D5E7FEB5054600248030019033
:102F600067E0600046191020305E401C05D0142038
:102F7000305E3C285BDD002739E000212246182323
:102F80005A430846521904E04B00D3188033188581
:102F9000491C2B688B42F7DC2346302700217B43FA
:102FA0005B1907E04F00D719403738878F00DF19CA
:102FB000491CB8612F688F42F4DCB082308236E061
:102FC000182060434019790043181846803000905B
:102FD0002822825E1021715E78204A43C35E491C1C
:102FE000D018FDF719F9014600987F1C0185286863
:102FF000B842E5DC1020305E6968884201DA401C86
:10300000308221463022514300204B19182262435E
:103010000146521907E04700D71940373987870022
:10302000DF19401CB9612F688742F4DCB182019836
:10303000641C806DA04294DCFEBDF8B504463023CC
:1030400000204B431F1906E08300FD18D358AE69DA
:10305000F318401CAB6123688342F5DC4800061975
:10306000182000254143081900900DE01421A80004
:10307000715E38188069491CFDF7CEF800996A0026
:103080008918403108876D1C2068A842EEDC1420A6
:10309000305EFF2802DA401CB082F8BD002008E054
:1030A000810079188A6913029A1A80321212401C20
:1030B0008A6121688142F3DCF8BDF0B50446002046
:1030C000054605E08600A759401CFF118F516D1C75
:1030D0009542F7DB984209DA002505E08600A759FA
:1030E000401C7F118F516D1C9542F7DB984214DA1A
:1030F0000023921E05E085006659401C36114E5192
:103100005B1C9342F7DB8200A358401CDB118B5001
:103110008200A3585B118B50401C7F230022DB43AD
:103120007F2609E094000D597F2D01DD0E5102E04C
:103130009D4200DA0B51521C8242F3DBF0BD0000CD
:10314000FFB58BB00C9900200B9C1E46174600293A
:1031500000D00860002F00D03860002E00D0306012
:10316000A06C069000286FD0606B40100590A06B9B
:10317000002802DDE06B401000E000208446206C57
:10318000029041100022104609E0069B4D005B5B57
:10319000491E1818521C002901DA059BC9186145FF
:1031A00001D0322AF1DB002A02DD1146FDF734F8A6
:1031B000616C4910049102994A1000218C460D4619
:1031C000099131498E4612E006995300C95A099B6C
:1031D0006D188B4200DA09918E4500DD8E466146FE
:1031E000491C8C460599521C8A4200DB0022049936
:1031F0008A42E9D16146002905DD09994A008A1809
:10320000714651188D100C99002900D00D60002FC7
:1032100000D03860002801DC002D2FDD616D814277
:1032200000DD0846216E022906DBA26AA16D531A51
:103230001E2B01DC8A4208DA014601220B9800F0BD
:10324000D1F8A16AA16505E011E0014600220B98C2
:1032500000F0C8F8002F00D03860854211DD0F2142
:1032600049024218954203DB002E07D0316005E089
:10327000281A002E00D03060FF2802DD01200FB098
:10328000F0BD0020FBE70000FFFF000010B5044682
:103290000020002900DC10BD002205E05300E35EA1
:1032A0005B439B0A1818521C8A42F7DBFCF7A6FF07
:1032B000820200200121890700E089089142FCD8A0
:1032C00007E04318934202D8D21A4B00181840085E
:1032D00089080029F5D18242DDD9401C10BD0028A3
:1032E00007D00023C9B202E00170401C5B1C93426E
:1032F000FADB704710B500280CD000290AD08842AC
:1033000008D0002304E00C780470401C491C5B1CAE
:103310009342F8DB10BD30B5030003D0002906D17D
:10332000012030BD002902D00020C04330BD084339
:10333000FCD000200CE01C5C0D5CAC4207D0E2B27B
:10334000E9B28A4201D9401C30BDC04330BD401CA7
:103350009042F0DB002030BD30B50346002004E091
:10336000440085000C5F5C51401C9042F8DB30BD8E
:1033700030B50346002004E0840045000C5B5C533C
:10338000401C9042F8DB30BD002805D0816C4C30E9
:103390008900081808181830704700B5002804D0B4
:1033A000FFF7F2FF01688900081800BD052000073B
:1033B00000680449000C0004884201D101207047D4
:1033C000002070470000071D30B50346002006E0CE
:1033D00084001C591425655F154202D1401C8842A7
:1033E000F6DB30BD70B50446C06D4018002A0BD026
:1033F000E065216E06460D46491CFCF70DFF0F2DBA
:1034000007DA6D1C256670BD216E491CFCF704FFB0
:1034100070BD3101891B08310911E16570BD0000E3
:10342000F7B582B00090C0681421FFF7BBF9002502
:103430002E4618E00398AC00005900F034FA074615
:103440000398005901F04EFA00280AD0002406E043
:1034500000983119C068074AFFF778FA641CBC422B
:10346000F6DBF6196D1C04988542E3DB304605B0A7
:10347000F0BD000018FCFFFF10B5002823D0014666
:10348000026C4431002A1DDD1623C35E08319C0600
:1034900018D51B071AD09200511851181423C35E77
:1034A0000122120393420FDB42680B68002B05DCFC
:1034B0000B1A1BB2934201DA091DF6E7081A00B293
:1034C000904201DB002010BD084610BDFFF765FFEC
:1034D00001688900081806C88900083808180168BA
:1034E000002901D09142F0D1001D0029EDDD00221C
:1034F00003E003689B001818521C8A42F9DB10BDD8
:10350000F7B50446002088B0A06515460146E06581
:1035100013E009988A008058236E826C40309342F1
:103520000DD1A26D0368D218A265E26D4068101833
:10353000E065E06A401C491CE062A942E9DBE06DFD
:10354000401B401CE065A94204DBA06D002801DDA2
:103550000A2D02DD00200BB0F0BD81008D2080001F
:103560000059FDF76FF92146FF3181318E464864DD
:10357000002808D0A16D49004118704681640020E0
:103580000146019089E00020C043E4E78800099AE1
:1035900006901258031903935A60099AFF33125880
:1035A0000592106C4C320133029300925A67019BD2
:1035B00000229C460BE0009B96009B5B7646766C57
:1035C00067467F00F35363465B1C9C46521C824255
:1035D000F1DB8200009B0492D318039A0093FF3220
:1035E0008132D361019A002394460BE0009E9F0034
:1035F000F65B7246976C62465200BE526246521C9F
:1036000094465B1C8342F1DB009B049A1426D2187B
:10361000059B9E5F01231B039E420FDB059B069FBC
:10362000099E5B68F7591668002E04DCD61B9E4283
:1036300001DA121DF7E7D61B9E4231DA059B9B7D0E
:103640009B0612D5039B80339A62E31DF93340CA6F
:103650009C461B6A9F1963461F62002303E017689C
:10366000BF00BA185B1CB342F9DB029B00275A6209
:103670000BE01368099E9B009A18069BF358D61A14
:10368000059B5B689E420BDC7F1C8742F1DB019A45
:103690001018029A0190491CD064A94200DA75E71B
:1036A000084658E710B501600A6C82654A6CC2652D
:1036B0008A6C02664C31416692005118816651183D
:1036C0000A68C2664A6802678B680246803283676E
:1036D0009360CB68C367D360086910601061486964
:1036E0005060183191615061086880004018D061C5
:1036F00001688900081810620168890009180B68C0
:103700004068002B01D083420ED1091D002B0BDD38
:1037100000205162024605E04C6820180C68A400A5
:103720006118521C9A42F7DB10BD70B504000ED030
:1037300025468035E86EFEF74FFA0020E8662866D9
:10374000A082401E20820120A865002070BD0420B8
:10375000C04370BDFFB581B0002402980C9F1E4687
:10376000009400280AD00398002807D0002E05DD19
:103770000A98002802DD0B98002802DC0020C043D4
:1037800034E000250EE00398A90040580028F5D049
:10379000002D23D000221146FDF7D6FB00994018DA
:1037A0006D1C0090B542EEDB00980028E6DD019824
:1037B000002818D08F25AD002946FDF743F80400F6
:1037C00012D02A460021FFF78AFDE51DFF35FA35A4
:1037D00001986863029900201C3116E003980B9A47
:1037E00000680A99D8E700240120C04338602046C9
:1037F000FDF7CEF9002005B0F0BD039A8300D25842
:103800000B68D269934202D1401CB042F5DBB04252
:10381000B4DB20460299FFF745FF0B9860670398D9
:1038200001680298814206D0324620460399FFF78C
:1038300067FEB042A2D12046FF3046218130C164EC
:103840000F2101650A214165002600214666C94312
:10385000866601666E61AE61EE6114202E6228619B
:103860003220E66420650C2060650A9868620120B9
:103870002863E06DFF2140102D31A862884200DAF4
:10388000A9620220E862686B0099FCF7DBFFA8637D
:103890000100A9D02046009AFDF797F90028A3D18E
:1038A00020463E60A7E7002800D0006C7047FFB5B7
:1038B00081B016460D46070011D0F421FCF7C2FF77
:1038C00004000CD0F4220021FFF709FD20468030CF
:1038D000291F8766092905D3204600F015F8002026
:1038E00005B0F0BD2560072E00DB07260021C94387
:1038F0006660A1600499E1600221C94341662046E7
:10390000FFF713FF2046EBE710B5040008D0FFF7E0
:103910000CFFE82000592146FCF7D0FF002010BD25
:103920000420C04310BDF0B5A9B00E46050026D056
:103930002827FF43002E26D0FFF7F7FE2C468034C1
:103940003146A06EFEF796F8E06600281BD0FEF721
:1039500083F90746E06EFEF783F90190E065781C75
:10396000A06502A9E06EFEF7FDF900200090014677
:1039700002AA2846019B00F09CF8002613E00420D0
:10398000C04329B0F0BD3846FBE702AA3146E06EDD
:10399000FEF74FFA0020009002AA711C2846019BF6
:1039A00000F087F8761CBE42EFDB0020E9E7002834
:1039B00003D080304166002070470420C043704728
:1039C000002802D08030006E70470420C04370474A
:1039D000FFB581B016460F4604000ED0282120689E
:1039E000C943B04206DC25468035E86D002807DD76
:1039F000B04205D0084605B0F0BD0420C043FAE748
:103A0000E86E002804D039462046049BFFF700FAF0
:103A1000286601463A462046049BFFF730FAE068E4
:103A2000002805D03946334608462268FFF745FB93
:103A30000020E0E71CB50021F4240191002806D005
:103A40000022009101AB1146FEF770FA041900F054
:103A500078F80019C01C800880001CBD002802D026
:103A60008030806D70470420C043704730B504003B
:103A700011D02820C043002A0FD025689D420CDCBD
:103A800000290ADBD8231B598B4206DD18230020AE
:103A90005943091909E00420C04330BD4300CB1845
:103AA000A8255D5F8300D550401C23688342F5DC68
:103AB00030BDF0B5059D040016D02820C043002A73
:103AC00014D026689E4211DC00290FDBD8231B5935
:103AD0008B420BDD002D09DB6368AB4206DB18234C
:103AE00000204B431B1909E00420C043F0BD4700F0
:103AF0008600DF198037965B3E85401C266886422B
:103B0000F5DC002030264E430246361907E0470018
:103B1000DF1940373A878700F719401CBA612768D8
:103B20008742F4DC490009198A820D82F0BD10B584
:103B3000002803D0FFF70FFA002010BD0420C04377
:103B400010BD102070470000810F8A0004495118F1
:103B50004A68C306DB0E0120984082434A607047E2
:103B60000002005010B5044601F04CFA08498A687A
:103B70004B051A438A6007494A6A520852004A6252
:103B80000A6A9208920022430A6201F025FA10BDE7
:103B90000002005000000840810F8A0004495118BB
:103BA0004A68C306DB0E0120984002434A60704712
:103BB0000002005010B5044601F024FA03490A68D7
:103BC00022430A6001F008FA10BD00000002005014
:103BD0000649096848430649486100208861052074
:103BE00008610869C003FCD570470000040000208C
:103BF00000E000E010B504000BD0A068002808D059
:103C000000F0A3FCE06100280DDB206A002802D050
:103C100007E00E4810BD616A891C6162A06800F06F
:103C2000FFFC002010BD0146153103D0C01C09D097
:103C3000074810BD0021A06800F04BFDE06103487B
:103C4000133810BD0148083810BD00002FF8FFFFE1
:103C500078ECFFFF38B50024009400F001F838BD7F
:103C6000FFB58FB00F981D4E14460D46002831D079
:103C7000002D2FD0286800282CD0002C2ADD0EAB78
:103C80000DAA0CA90BA802AF0FC707A906A801919E
:103C900000900AAB09AA08A90F9800F07BFBF71E59
:103CA000002809D10122120321462846FFF78CFB88
:103CB0000146601E814202DA384613B0F0BDFF2093
:103CC0002D30009022462946129B0F9800F018FED6
:103CD000002801DC3046F0E75830EEE72EF8FFFF11
:103CE00010B5040007D0042206A1FFF714FB00283A
:103CF00004D0064810BD0548C01C10BD204600F089
:103D000021FD10BD43594844000000002BF8FFFF7F
:103D100010B5040009D0E168A06800F042FD2169F7
:103D2000A06800F0A1FDE06910BD014810BD0000D1
:103D30002FF8FFFF7CB515460E46040009D001AAF6
:103D40006946A06800F004FDE169814204D0094899
:103D50007CBD084808307CBD002E03D06069009906
:103D600048433060002D03D06069019948432860C2
:103D7000E0697CBD27F8FFFFFFB591B000241E9FCE
:103D80001A9E214620460994FFF710FB002816D002
:103D90001198002816D010AB0FAA0EA90DA802ADDD
:103DA0000FC507A908A8019100900CAB0BAA0AA99E
:103DB000119800F0EFFA002807D04D487BE04C48FE
:103DC000C33878E04A48C01C75E011AD0FCDFFF74D
:103DD00041FF051EF6DD002E02D01B98A84202DA34
:103DE0004348801C67E013980128E6DB0122014666
:103DF00012031298FFF7E8FA01461398401E814219
:103E0000DBDB5822344600213046FFF768FAFF20FA
:103E10002D302A463146009009AB583A583101A856
:103E20000EC011A80FC800F0CDFDA060002841D041
:103E30001C99002918D01D99002915DD002100F0DA
:103E4000B0FC1D99009088420EDC1C98E0600021B7
:103E5000A06800F009FD009941181D98814203DC1B
:103E600000991C9840182061E168A06800F0CDFC22
:103E70002169A06800F018FD3C21A06800F005FC55
:103E80000421A06800F037FC12982060139860604D
:103E9000089860610798A06115482146001FE061FD
:103EA0002C31A06AFFF782FA142161622062002897
:103EB0000CD00EE00F480990204600F01DF8002FAE
:103EC00001D009983860002015B0F0BDA06800F05E
:103ED000A7FB701920631B98401B60631198A063B7
:103EE0001498E063002F01D0099838602046EBE772
:103EF0002BF8FFFF78ECFFFF10B504000CD0E16851
:103F0000A06800F04EFC2169A06800F0ADFCA0683C
:103F100000F0CBFB002010BD004810BD2FF8FFFFC4
:103F200010B5040008D0A068002805D000F0FAFB06
:103F3000002803D0054810BD054810BD04480838C6
:103F4000E061A0640020E06410BD000078ECFFFF99
:103F50002FF8FFFF10B503000BD09868002808D099
:103F60001B6A002B08D000F07BFB002800D0034820
:103F700010BD0248401C10BD002010BD2EF8FFFFF0
:103F800010B502000BD09068002808D0126A002AF1
:103F900008D000F055FB002800D0034810BD0248AF
:103FA000401C10BD002010BD2EF8FFFF70B586B07C
:103FB00004460D461646C823324629462046FFF7DA
:103FC00049FE0B4A40201268039005AB0749094897
:103FD0000493019202910090C8233246294620465C
:103FE000FFF7CAFE0028FFD106B070BD542800209C
:103FF0003C00002054000020FFB585B001F062F9BC
:104000000027002004900598FFF78AFF00250F98ED
:10401000002805D00F988047002801DD04904AE071
:1040200001A801F02FF900900098002843DB0098C8
:104030000028ECD0009A01990598FFF7DBFD0028D5
:1040400026D10598FFF764FE0446002D3BD0069864
:104050000068A0421BDC06984068A04217DD02AA57
:1040600003A90598FFF766FE029903984018311AD4
:104070007D200002814209DA01F0F8F8002801D021
:1040800001F0FAF8079800282DD000270025002617
:1040900001A801F05FF9002D06DD009836187D209B
:1040A0004002864200DB00257F1C08980028AED025
:1040B00008988742ABD30598FFF71EFF01F03CF943
:1040C000049809B0F0BD06980068A04203DC069889
:1040D0004068A042DBDC01F0C9F8002801D001F003
:1040E000CBF80125D3E7641C0494E4E7FFB585B061
:1040F0000D4617463A462946FFF758FF0646002068
:10410000029003900490300001D0022F03D20020CF
:10411000C04309B0F0BD2868FFF7E2FD029068686F
:10412000FFF7DEFD029940180390039804900024E5
:1041300006E00E22D24321463046FFF70BFF641CF7
:104140000298A042F5DC022F12D9A868FFF7C8FD3B
:10415000039940180490039C0E25ED4305E02A4680
:1041600021463046FFF7F6FE641C0498A042F6DCB8
:1041700014213046FFF704FF10990F980191009029
:1041800002A930460E9B089AFFF736FFC1E70000F0
:1041900010B50D48016A49060ED5402101620B4950
:1041A00001224B79002B08D00B78002B07D000227E
:1041B0000A70202100F03CFF10BD4A7110BD0A704A
:1041C00001F028F810BD0000404000501C00002005
:1041D00010B58369140E8C4023438361C3691202B6
:1041E000120A8A401343C36110BDF0B500230127B2
:1041F0003C469C400C4208D005685C000326A64063
:10420000B5431646A640354305605B1C102BEFD323
:10421000F0BD000070B51B4C012211462046FFF78F
:10422000E4FF00220121204600F00CFF01222021A2
:104230002046FFF7DAFF134D0122403D3F2128467B
:10424000FFF7D3FF00223F21284600F0F1FE0022B5
:104250002021204600F0ECFE032240212046FFF7FB
:10426000C4FF094A06212046FFF7B2FF0748102184
:1042700001600749202008606169402001436161B5
:1042800070BD0000404000500100010000E100E06E
:104290008041005010B501200D49C0434860012005
:1042A000FCF7D6F80B4C002020620A484038016821
:1042B000072211430160FCF7EBF8606A1E21884376
:1042C0006062FCF7C4F80448FFF73EFC10BD000034
:1042D00000000E40400008401CFE034070B523481B
:1042E000FFF75AFC2248FFF757FC224800F07CFEFB
:1042F000214C606A400940011E306062606A2026DD
:1043000030436062606A402188436062206A00092D
:1043100000010E3020621948FCF7F4F81649042019
:10432000403908600020FCF7BBF80022114630023B
:10433000FCF7C0F8FCF7BCF8114D286907210843C9
:104340002861606AB0436062FCF750F90120C04305
:104350006860686901210843686128694000400875
:1043600028610849002000F0C1FD70BD1CFE03401B
:104370001E0000401C00000440000840C50D000065
:1043800000000E40240210060149012048607047D9
:1043900000000E40F0B5059E089D099C002806D03F
:1043A0001427C75F072F05DA0320C043F0BD0020A4
:1043B000C043F0BD2027C75F0F602221415E11601E
:1043C0002421415E19602621415E31602822069930
:1043D000825E0A602C220799825E0A602E21415E6D
:1043E00029603021415E21603221415E0A980160DE
:1043F0000020F0BDF0B58BB017460E46040014D077
:10440000A06C002820D007AA0021E068FEF7F5F88C
:1044100007984510012F0CDD3846FCF7DBFD4D21D8
:10442000484300121421484304E00020C0430BB06D
:10443000F0BD00200799C907A16C16D06A008B5AFD
:104440001818C003000C88523146E068FCF7CAFC1B
:10445000224605463C32111FE068FEF7CEF8002DDB
:1044600005DA28460B3002D06CE06A00EBE7204604
:10447000203000902346002240331146E068FDF7CB
:1044800023FE0AAB02AA01A92046FEF759FE0299B3
:10449000002908DC0199002905DC002D01DBE16E13
:1044A00000E0216D0191002D39DB002837D0E16E4D
:1044B0000198814233DCA16C002928D0616E081874
:1044C0006066A66E0746711CFBF7A6FE032E02DA95
:1044D000761CA66604E079007918891C8A10626649
:1044E00005214902401A0190401A0F21029A4902FF
:1044F0005118884200DD0846D11DFF31FA3188424B
:1045000000DA0846E16C814200DB0846E066E068BC
:10451000FCF730FC0020A062A065284687E7E06930
:1045200000280FD0002D04DA206D0199884203DDA8
:1045300008E00320C0432062E068FCF71BFC142065
:10454000C04374E70220C04371E7F7B5A8B017462F
:1045500004004CD06669A0690390301A02900020D4
:10456000226BB11A4518BD4247DCE36A52009B1822
:104570004A004100299809181846FEF7BBFE606AF8
:10458000009001AB04AAE16A6068FCF774FA00903D
:10459000A06C002804D03146E06AFEF777FE019057
:1045A000002060620098002815DDA06A002822D053
:1045B0000023A06804A9009AFFF70AFAA068FFF791
:1045C000FFF9A06A04A9401CA0622046019AFFF7E7
:1045D00011FFC11C0DD10399E06A029A49004118EC
:1045E0005200FEF787FE029820632846B8E70020B5
:1045F000C0432BB0F0BD0123DBE73D1A002D0CDDDD
:10460000E16A52008B18410029986A00091818467F
:10461000FEF770FE206B401920630220C043E8E7DC
:1046200010B5002806D0C068FDF7EEFA401C04D093
:10463000002010BD0020C04310BD0C20C04310BDA1
:1046400010B5002806D0C068FEF7ACF8401C04D0B6
:10465000002010BD0020C04310BD0C20C04310BD81
:1046600010B5002808D0C068FEF770F9411C06D0CC
:104670000C3007D0002010BD0020C04310BD0C201E
:10468000C04310BD1D20C04310BD10B5002806D08A
:10469000C068FEF704FA401C04D0002010BD0020C2
:1046A000C04310BD0C20C04310BD10B504000ED097
:1046B000E068002801D0FCF76BFAA068002801D060
:1046C000FFF722F96068002801D0FCF7C7F9002045
:1046D00010BD08B500280BD0002901D0026A0A607D
:1046E00000210091C0680B460A46FDF7EDFC08BDAD
:1046F0000020C04308BD10B5002806D0406800283F
:1047000006D0002907DA002108E00020C04310BDD0
:104710000A20C04310BD082900DD0821FCF700FC79
:10472000002010BD10B5002809D0012141620021F0
:10473000816281650163C068FCF71CFB10BD00202D
:10474000C04310BD10B5002801D0FFF7ACF810BD74
:10475000F8B515460E4604000DD000200090234603
:10476000002240331146E068FDF7AEFC002805DA70
:104770001320C043F8BD0020C043F8BD626C216C1B
:10478000531A01D5616BCB18002E00D03360626CD8
:10479000E16B891A01D5626B5118002DEDD02960AB
:1047A000F8BDF3B583B0040016D0A068002817D078
:1047B0006068FCF7C2FB0090A068FFF74FF907465E
:1047C000049800280FD0A068FFF7B1F900980026E0
:1047D0008000049D019013E00020C04305B0F0BDAF
:1047E0000B20C043FAE7009880007843F6E7A06802
:1047F0002A463146009BFFF739F901984519761C86
:10480000BE42F4DB0498281AE8E7F0B585B00F46FD
:10481000050012D0002F10D0A868002811D06868B9
:10482000FCF78BFB0190A868FFF718F9039001983B
:10483000002680003C46029011E00020C04305B0F5
:10484000F0BD0B20C043FAE700200090A868224684
:104850003146019BFFF72DF902980419761C039845
:104860008642F1DBE01BEAE770B5040009D00029BD
:104870000AD0A26E002A02DD206E002806DC00208D
:1048800070BD0020C04370BD0C2070BD0D461146A8
:10489000606EFBF7C1FC2860216EE06DFBF7BCFC8D
:1048A0006860E06EA860EFE7002809D0002907D013
:1048B0000A68002A02DD4A68002A04DC00207047EA
:1048C0000020C0437047012282660B68436602667F
:1048D0004A68C2658A68C16C8A4200DD1146C166B9
:1048E0000C207047002804D01421415E072901DA0A
:1048F00000207047014620311420085E70470000F8
:10490000FFB58FB0FF2400210134189D1E4606918B
:1049100000280CD01198002809DD10980768002F96
:1049200005D0002E03DDF00701D1002D03DC0020AF
:10493000C04313B0F0BDE1208000854200DD054694
:1049400006AB05930EAA0DA90CA802AB07C30BA9D1
:104950000AA80191009007AB09AA08A93846FFF7F9
:1049600019FD002803D10798002800DD04461448EB
:1049700000906000042170300A1A9207920F1718F5
:104980000698002806DD70084000C019091A89073A
:10499000890F0F182046FCF7D3F9C7190098FFF7C5
:1049A00049F8C7192B46324611991098FCF784FA3A
:1049B000C51920461C35FCF7CFF94019B9E70000AE
:1049C0008C540000FFB5002499B0E01E259D0A9488
:1049D0000C901998671E0E940B9400283FD01B98DA
:1049E00000283CDD1A980668002E38D01C98002854
:1049F00035DDC00733D12298002830DD0146E120A3
:104A00008000814200DD2290307B4E2814D1707BE3
:104A1000492811D1B07B4E280ED1F07B4A280BD10A
:104A2000307C412808D1707C5F2805D1B07C4228B9
:104A300002D1F07C532802D00320C0430AE11420A5
:104A4000305E0728F8DBC0B20828F5D8229800901D
:104A500019A80FC8FFF754FF0790002801DC2F604A
:104A6000F9E02398002803D007992498884202DAB5
:104A70000120C043EEE0239C702200212046FEF777
:104A80002EFC7D20C0012061FF2001306061A0204C
:104A9000A06108200990FA200D9032200EAB1790EB
:104AA000059316AA15A914A802AB07C313A912A847
:104AB00001910090182711AB10AA0FA93046FFF7FB
:104AC00069FC002824D10F98002801DD2028B3D1EB
:104AD0001098002800DD20611198002800DD606139
:104AE0001298002800DDA0611398002800DD074619
:104AF0001498002800D00B901598002800D00A9038
:104B00001698002800DD0D900E98002800DD179003
:104B10007D22D20121695310914201D099428BD15B
:104B2000A069A02806D0502804D0C61FF93E01D0A5
:104B3000802881D1242F03D0182F01D0102FC6D167
:104B40009142C4D16169C81FF938C0D1182FBED1B4
:104B5000239804217030E0626069504F400070304B
:104B60000A1A9207920F10180E9A0026002A0ADDE0
:104B7000239A1218A2641C9A520852001018091A9B
:104B80008907890F08180799239A091A1018FBF743
:104B900043FE002853D02060A2696169099BFBF79E
:104BA000EDFE606000284DD00D99002901D0FCF782
:104BB000B4F801231A4620680999FEF778FEA06030
:104BC000002842D03946FEF7AEFEA0680C99FEF7E9
:104BD000EEFE1C986A46229923C219A90EC92068C4
:104BE000FEF7B8FDE060002832D00B99002901D013
:104BF000FDF70AF80A98002803D0E0680A99FDF743
:104C0000D1FD1A980068FFF76DFE002804D02046F9
:104C10001B9A1A99FEF704FCA662A665266301207A
:104C2000E66160621C9860631798012819DDFCF743
:104C3000D1F94D21484300121421484312E00920C4
:104C4000C04307E00A20C04304E00B20C04301E05A
:104C50000C20C04328602046FFF727FD00201DB030
:104C6000F0BD0020E064FF20F530FCF7B3F94D21E2
:104C7000484300121421484320650846FCF7AAF96E
:104C80004D2148430012142148436065E06CE06602
:104C90002046FFF747FD2046E1E700008C54000066
:104CA000034A00028018026A0A4302627047000049
:104CB0000080005010B51C48416A01220905090F07
:104CC000002908D00F2109024162184802701848D3
:104CD0000168491C01601748416A890718D50221FB
:104CE000416215490868401C086014490968002998
:104CF0000ED0C4071248134B13490AD00260406813
:104D0000002800D01A60A023104A002000F034F9D7
:104D100010BD42600068002800D01A60A0230C4A31
:104D2000002000F029F910BD008100504100002052
:104D300048000020008000502800002030000020A3
:104D4000340000202C00002000000E40142700201A
:104D5000D425002002490A68000202430A60704715
:104D6000008F005030B5039C054D00024019416092
:104D700083600168F023994322431143016030BDF1
:104D80000080005010B50C4B0002C01803680324CB
:104D9000E404A3430B430360002908D00123DB0490
:104DA000C91A07D0994201D15100C16010BD9100CC
:104DB000C16010BDC26010BD00800050044A0002F6
:104DC000801802680C239A430A430260704700006F
:104DD00000800050F0B500222A4D0B0000F0D0FA00
:104DE000080B052A221A123139416968090909019B
:104DF00001436960F0BD6968F022914300010143FD
:104E00006960F0BD69680F221204914300040143F8
:104E10006960F0BD69680F221205914300050143E6
:104E20006960F0BD69680F221206914300060143D4
:104E30006960F0BD696809010909000701436960FB
:104E4000F0BD69680F2212029143000201436960BC
:104E5000F0BD69680F2212039143000301436960AA
:104E6000F0BD0F276E6893003946994004460E4006
:104E70009C40A64202D16B680B436B60521C082A0F
:104E8000F0D3F0BD008F00500349000240180168C4
:104E9000024A114301607047008000500100800009
:104EA0000749020251180A68520852000A6005496F
:104EB0000A6801238340180282430A607047000099
:104EC00000800050008F005010B50120FEF764FEF6
:104ED000022000F089F8012002498006086002499A
:104EE000086010BD80E200E000E100E07CB506460D
:104EF0000C461F4831020D180A2001900120B040D5
:104F0000FFF728FF28680221084328600199481EFE
:104F10000190FBD20023210E1A463046FFF75AFFBC
:104F20002046C02108400090224630200240002345
:104F300019463046FFF716FF03202146C004014002
:104F400000223046FFF71EFF21460C20014030466C
:104F5000FFF734FF28680F21090321400843286028
:104F6000044868622005010F3046FFF799FE7CBDBA
:104F7000008000500305000070B504461046074A43
:104F80002502AA185160906001211A4609052046A1
:104F9000FFF7F8FE2046FFF777FF70BD0080005056
:104FA0000102034808180168490849000160704778
:104FB0000080005010B50420FEF7FCFD0020FEF735
:104FC000D1FD0348FEF7E8FD0248FEF7E5FD10BD00
:104FD0000600805E0700C05E002802D00149002064
:104FE00008607047000100500521020E09075118A2
:104FF0008B680122824013438B60886890438860ED
:105000007047000010B509480168C90701D00020A9
:1050100010BD59211622882302E00160026003605E
:105020000468012CF9D1012010BD000000010050DE
:10503000012A03D082688A438260704782680A43EB
:1050400082607047012A03D082688A438260704779
:1050500082680A4382607047002101607047000047
:1050600010B586B0044614220F4901A8FBF77AF860
:105070000E490F488C4203D140694005400F06E0BD
:105080000A4920318C4209D140694004400F02286E
:1050900006D0800001A9085806B010BD0020FBE72B
:1050A00004480068F8E70000E453000000000140F5
:1050B0000002005000000020F7B5064617463046B3
:1050C000FFF7CEFF044600256008B84201D2022057
:1050D00017E0012189068C4202D30725E4080CE081
:1050E000012149068C4202D30325A40805E00121D1
:1050F00009068C4201D30125044639462046FBF7B8
:105100007DF801992943316070606D1C6843014648
:105110002046FBF773F8FEBD70B50F4C20780F4D9D
:10512000002809D02089002813D02089401E0004BF
:10513000000C20810BD00CE0296828460122920740
:1051400091432960FFF788FF0020A07001E000F084
:1051500061F80120A86070BD1C0000200000014023
:1051600000B508494889002807D04889401E000436
:10517000000C488101D100F009F803490120886042
:1051800000BD00001C0000202000014010B50C4BA9
:10519000588900280BD1D9780A480A24012907D058
:1051A0000121D97001221146FFF742FF5C8110BD39
:1051B0000021D97000220121FFF73AFF5C8110BD68
:1051C0001C00002040400050F0B506469C46344686
:1051D00020CCA80000190860012009E0904209DAFB
:1051E000431E9F00CB59E759DF198300CF50401C65
:1051F000A842F3DB421E92008958A2588918891BE5
:10520000034A89180A0B120361460A60F0BD0000C8
:10521000FF0F000010B512490878002812D08878D6
:10522000FF22F53200280ED0088900280AD14B78D9
:105230000C48012B0BD001234B700A810122202145
:10524000FFF7F6FE10BD1046FBF7A4F910BD064AA5
:105250000A8100224A702021FFF7EAFE10BD0000FB
:105260001C00002040400050B80B0000014840687E
:105270007047000028000020014900204860704766
:10528000280000200C498968002911D00A490C31F6
:105290000A68002A03D009490160A02070474968C4
:1052A000002903D006490160A02070470020704704
:1052B0000020C0437047000028000020D4250020B3
:1052C0001427002010B5FFF7FFFDFFF707F814487B
:1052D000016A09090901891D0162416A1F221143FE
:1052E000416211490F488860104CE06800090001D4
:1052F000801CE0601020A0600D49002008600A4674
:105300000C3250601060486001208860FFF73CF864
:10531000A023084A21460020FFF72EFE10BD000002
:10532000400008402FC3011E40000B4000000E400B
:1053300028000020D425002010B5054900208860F1
:10534000FFF72EFE0020FFF7ABFDFEF7A3FF10BD19
:105350002800002030B5074C0368074A0021A3420B
:1053600000D11160054C0368A34200D15160016077
:10537000002030BDD4250020340000201427002058
:1053800030B47446641E2578641CAB4200D21D46BE
:10539000635D5B00E31830BC184786B0FFF732FE50
:1053A000FFF708FEFEF736FF0B2003AB032204A92C
:1053B0000003FFF709FF032813DB0A20FBF7C0F8FF
:1053C000002404AD00940194029400230222291DBC
:1053D0000498FEF78BFE002803DD001FFBF74EF953
:1053E000F0E7FEE7803E00000080000000000000C3
:1053F000000000000000EE0240008000C0008001BC
:1054000076860000EC0C010076860000F67E000037
:10541000DE9A00002E6400005CC800002E640000CC
:105420009A5E00002032000054570000A8AE000031
:105430005457000076520000DA0A0000245B454908
:10544000575555082C595D5C1B0E455563655C63CB
:105450006330172E272A292C38224D372F30092167
:10546000282D2E363C2336443B333C3D2537363100
:105470003A4B69696F70627052262E1F2E392B21AC
:1054800061622E000000694D756BBA7E46697853E3
:10549000696D56310100000018000000080000008E
:1054A0000C0000000A0000000800000007000000D7
:1054B00007000000070000000700000007000000D0
:1054C00007000000070000000700000005000000C2
:1054D00005000000050000000500000005000000B8
:1054E00005000000050000000500000004000000A9
:1054F000040000000400000004000000040000009C
:105500000400000007000000050000000600000085
:105510008BA232009A213B008D027C00749C4400D7
:10552000A8C144007A3C5000BF08000020080000D9
:105530002A0500008807000086070000E806000032
:10554000DA500000B8430000413600002638000061
:105550006F3500006A42000069FCFFFF260600006C
:10556000650500004401000043010000190200002D
:10557000D5FFFFFF3C0000000CFAFFFFB1FEFFFF6C
:10558000E6FEFFFFB20000007500000098FFFFFF7D
:10559000BBFFFFFFF8FFFFFFC9010000190000007B
:1055A000F9FFFFFFD8FEFFFF18FFFFFF02FFFFFF1D
:1055B00094FDFFFF8F0100000300000007000000C2
:1055C0000B000000120000001A0000002200000082
:1055D0002900000032000000070000000F0000005A
:1055E000190000002300000033000000400000000C
:1055F000490000005C0000001400000032000000C0
:105600004D0000006900000092000000BA00000098
:105610000C0000000A00000079FDFFFF4CFCFFFFBA
:10562000B80500007B03000037050000C100000042
:1056300086FDFFFF0A010000A3FFFFFF2C00000012
:105640000AFFFFFFC9FFFFFF91FFFFFFA4FFFFFF5E
:10565000CDFFFFFF8CFFFFFF6A000000410100004B
:1056600056FFFFFF75FFFFFF11FFFFFFB8FFFFFFB2
:10567000C7FDFFFF83FDFFFF0600000009000000DB
:10568000110000001F000000250000002E00000097
:1056900032000000380000003E0000004200000020
:1056A0006C0000008100000092000000A1000000DA
:1056B000A8000000C1000000CB000000F5000000C1
:1056C000410100006901000094010000AB010000ED
:1056D0007D000000920000002AFBFFFFE20E0000A8
:1056E000DA03000005090000E50200007200000076
:1056F000B50000009BFFFFFF70FFFFFF87FFFFFF6C
:1057000083FFFFFF82FFFFFF85FFFFFF7DFFFFFF9E
:1057100085FFFFFF7CFFFFFFC6FFFFFFD2FFFFFFFC
:1057200063FFFFFF43FEFFFF32FFFFFF3B00000070
:105730006BFFFFFFF6FFFFFF1500000023000000D6
:105740004C000000B400000093000000A500000021
:105750009B000000A100000003010000E900000020
:1057600004010000080100001E0100001E010000ED
:105770002B01000043010000A90200009E0200006E
:10578000EA020000E103000055030000640300008A
:105790000A05000039030000A4050000F608000017
:1057A00091FEFFFF340200007303000010040000AC
:1057B00019020000010000005FFFFFFFAAFFFFFFCA
:1057C00087FFFFFF85FFFFFF79FFFFFF70FFFFFFF0
:1057D00091FFFFFF7CFFFFFF8CFEFFFFDFFFFFFF5E
:1057E0001F010000BA000000EFFEFFFF93FEFFFF65
:1057F00045FFFFFFDFFFFFFF210000002F0000003B
:10580000440000008E0000007A0000008F000000BD
:10581000860000008D000000B8000000AC00000011
:10582000CB000000D5000000E9000000EF00000000
:10583000FA0000000F010000110200002D0200001C
:105840001103000021030000E5020000070300002F
:105850000703000039020000C3FDFFFF6F100000C6
:10586000E9060000A2020000A2FFFFFFAF02000055
:1058700027020000E0FFFFFF66FFFFFF94FFFFFF2E
:1058800091FFFFFF85FFFFFF7EFFFFFF7AFFFFFF16
:105890008AFFFFFF7EFFFFFF98FFFFFF85FEFFFFF0
:1058A0008DFEFFFFDD000000BC0000003BFFFFFF9E
:1058B00063FFFFFF33000000130000002E00000014
:1058C0004C000000D1000000A4000000AF00000068
:1058D000B4000000B80000000C010000020100004C
:1058E000110100001C010000310100003401000022
:1058F000430100005E01000094020000A3020000CA
:105900005B03000051040000C40300007D0300009D
:1059100067050000D0020000C0FDFFFFD60E0000AA
:1059200049040000FC0500008B0100004502000056
:105930004D010000EFFFFFFF38FDFFFF9BFFFFFF62
:1059400069FFFFFFA4FFFFFF9DFFFFFF8AFFFFFF2F
:10595000AAFFFFFF9BFFFFFF07FFFFFF28FEFFFFE0
:10596000FFFFFFFFC0FEFFFF6FFFFFFF5FFFFFFFB7
:10597000AAFEFFFF640600000E00000023000000E6
:10598000360000006900000074000000850000007F
:105990008F000000970000001C0000003100000094
:1059A0004F0000006F0000007E0000009500000026
:1059B000A8000000BE0000003C0000008F000000B6
:1059C000C1000000200100005A010000A0010000F9
:1059D0004D0000002800000001000000040000004D
:1059E00062CC5E012BBCE8005AD6B10081D0C80061
:1059F00008040000AC050000C006000043060000DB
:105A0000FD5A0000B7560000D8570000F3560000BA
:105A1000730A000024020000E3180000EEF7FFFF05
:105A200062F9FFFF6FFDFFFF4CF8FFFFD3FBFFFFA5
:105A30001D1A0000C1F8FFFFEC00000025F8FFFF71
:105A4000AAFBFFFF7DFEFFFFA0FCFFFF84FEFFFF20
:105A50002DFDFFFF2A010000EFFCFFFF7FFFFFFF8E
:105A60002F00000059000000AD0B0000A1F8FFFF5F
:105A70000200000004000000030000000700000016
:105A80000D00000010000000130000001A000000CC
:105A90000200000007000000080000000D000000E8
:105AA000170000001C000000200000002C00000077
:105AB00007000000180000001A0000002A00000083
:105AC0004500000053000000060000000600000032
:105AD0005634000081F6FFFF3503000009E5FFFFA3
